{
  "_format": "hh-sol-artifact-1",
  "contractName": "GaslessTokenTransfer",
  "sourceName": "contracts/GaslessTokenTransfer.sol",
  "abi": [
    {
      "inputs": [
        {
          "internalType": "address",
          "name": "token",
          "type": "address"
        },
        {
          "internalType": "address",
          "name": "sender",
          "type": "address"
        },
        {
          "internalType": "address",
          "name": "receiver",
          "type": "address"
        },
        {
          "internalType": "uint256",
          "name": "amount",
          "type": "uint256"
        },
        {
          "internalType": "uint256",
          "name": "fee",
          "type": "uint256"
        },
        {
          "internalType": "uint256",
          "name": "deadline",
          "type": "uint256"
        },
        {
          "internalType": "uint8",
          "name": "v",
          "type": "uint8"
        },
        {
          "internalType": "bytes32",
          "name": "r",
          "type": "bytes32"
        },
        {
          "internalType": "bytes32",
          "name": "s",
          "type": "bytes32"
        }
      ],
      "name": "send",
      "outputs": [],
      "stateMutability": "nonpayable",
      "type": "function"
    }
  ],
  "bytecode": "0x6080604052348015600f57600080fd5b5061058d8061001f6000396000f3fe608060405234801561001057600080fd5b506004361061002b5760003560e01c80635d21d37b14610030575b600080fd5b61004a600480360381019061004591906102e3565b61004c565b005b8873ffffffffffffffffffffffffffffffffffffffff1663d505accf8930888a61007691906103dc565b888888886040518863ffffffff1660e01b815260040161009c979695949392919061044c565b600060405180830381600087803b1580156100b657600080fd5b505af11580156100ca573d6000803e3d6000fd5b505050508873ffffffffffffffffffffffffffffffffffffffff166323b872dd8989896040518463ffffffff1660e01b815260040161010b939291906104bb565b6020604051808303816000875af115801561012a573d6000803e3d6000fd5b505050506040513d601f19601f8201168201806040525081019061014e919061052a565b508873ffffffffffffffffffffffffffffffffffffffff166323b872dd8933886040518463ffffffff1660e01b815260040161018c939291906104bb565b6020604051808303816000875af11580156101ab573d6000803e3d6000fd5b505050506040513d601f19601f820116820180604052508101906101cf919061052a565b50505050505050505050565b600080fd5b600073ffffffffffffffffffffffffffffffffffffffff82169050919050565b600061020b826101e0565b9050919050565b61021b81610200565b811461022657600080fd5b50565b60008135905061023881610212565b92915050565b6000819050919050565b6102518161023e565b811461025c57600080fd5b50565b60008135905061026e81610248565b92915050565b600060ff82169050919050565b61028a81610274565b811461029557600080fd5b50565b6000813590506102a781610281565b92915050565b6000819050919050565b6102c0816102ad565b81146102cb57600080fd5b50565b6000813590506102dd816102b7565b92915050565b60008060008060008060008060006101208a8c031215610306576103056101db565b5b60006103148c828d01610229565b99505060206103258c828d01610229565b98505060406103368c828d01610229565b97505060606103478c828d0161025f565b96505060806103588c828d0161025f565b95505060a06103698c828d0161025f565b94505060c061037a8c828d01610298565b93505060e061038b8c828d016102ce565b92505061010061039d8c828d016102ce565b9150509295985092959850929598565b7f4e487b7100000000000000000000000000000000000000000000000000000000600052601160045260246000fd5b60006103e78261023e565b91506103f28361023e565b925082820190508082111561040a576104096103ad565b5b92915050565b61041981610200565b82525050565b6104288161023e565b82525050565b61043781610274565b82525050565b610446816102ad565b82525050565b600060e082019050610461600083018a610410565b61046e6020830189610410565b61047b604083018861041f565b610488606083018761041f565b610495608083018661042e565b6104a260a083018561043d565b6104af60c083018461043d565b98975050505050505050565b60006060820190506104d06000830186610410565b6104dd6020830185610410565b6104ea604083018461041f565b949350505050565b60008115159050919050565b610507816104f2565b811461051257600080fd5b50565b600081519050610524816104fe565b92915050565b6000602082840312156105405761053f6101db565b5b600061054e84828501610515565b9150509291505056fea2646970667358221220e82ac66cb3cf9a6ca64c5feac1f89d5b66c257799593538fe0c0a06901359b0c64736f6c634300081c0033",
  "linkReferences": {},
  "deployedLinkReferences": {}
}